:020000040000fa
:080000000004040000000000f0
:020000040000fa
:1000080004180000081800000c1800001018000060
:10001800141800000c1900000c1900000c1900003d
:10002800181800001c1800002018000024180000f0
:100038000c190000281800002c18000030180000c7
:1000480034180000381800003c1800004018000060
:1000580044180000481800000c1900000c19000092
:100068004c180000501800005418000058180000e0
:100078005c1800000c1900006018000064180000eb
:100088000c190000681800006c18000070180000b7
:1000980074180000781800007c1800008018000010
:1000a80084180000881800000c1900000c190000c2
:1000b8000c1900008c18000090180000941800001b
:1000c800981800009c180000a0180000a418000050
:1000d800a8180000ac1800000c1900000c1900004a
:1000e8000c190000b0180000b41800000c1900002a
:1000f8000c190000b8180000bc1800000c1900000a
:100108000c1900000c1900000c1900000c19000053
:100118000c1900000c190000c01800000c19000090
:100128000c190000c4180000c8180000cc18000002
:100138000c1900000c1900000c1900000c19000023
:10014800d01800000c1900000c1900000c19000050
:100158000c190000d41800000c1900000c1900003c
:100168000c190000d8180000dc180000e018000086
:10017800e4180000e8180000ec180000f01800006f
:10018800f4180000f8180000fc180000001900001e
:1001980004190000081900000c1900000c190000cf
:1001a8000c1900000c1900000c1900000c190000b3
:1001b8000c1900000c1900000c1900000c190000a3
:1001c8000c1900000c1900000c1900000c19000093
:1001d8000c1900000c1900000c1900000c19000083
:1001e8000c1900000c1900000c1900000c19000073
:0801f8000c1900000c190000b5
:020000040000fa
:100208002605000004050000160500000c05000086
:100218001e05000026050000260500002605000032
:10022800260500002605000026050000260500001a
:10023800260500002605000026050000260500000a
:1002480026050000260500002605000026050000fa
:1002580026050000260500002605000026050000ea
:1002680026050000260500002605000026050000da
:1002780026050000260500002605000026050000ca
:1002880026050000260500002605000026050000ba
:1002980026050000260500002605000026050000aa
:1002a800260500002605000026050000260500009a
:1002b800260500002605000026050000260500008a
:1002c800260500002605000026050000260500007a
:1002d800260500002605000026050000260500006a
:1002e800260500002605000026050000260500005a
:1002f800260500002605000026050000260500004a
:100308002605000026050000260500002605000039
:100318002605000026050000260500002605000029
:100328002605000026050000260500002605000019
:100338002605000026050000260500002605000009
:1003480026050000260500002605000026050000f9
:1003580026050000260500002605000026050000e9
:1003680026050000260500002605000026050000d9
:1003780026050000260500002605000026050000c9
:1003880026050000260500002605000026050000b9
:1003980026050000260500002605000026050000a9
:1003a8002605000026050000260500002605000099
:1003b8002605000026050000260500002605000089
:1003c8002605000026050000260500002605000079
:1003d8002605000026050000260500002605000069
:1003e8002605000026050000260500002605000059
:0803f8002605000026050000a7
:020000040000fa
:100800000fa220000eff27000e018800000000004c
:10081000000020000000e000020032000001200083
:1008200020028800140007008a0007000000e00092
:1008300003003a00606a2100010020000200370036
:100840000000200001002000810f70000100320034
:1008500014000700000020000000e0000200320049
:1008600000000200000000005a1602000000000014
:100870000040da000000fe004440a900000c200007
:100880000000e000030032000020200090018800fa
:100890004440a800000006008a1f78008b1f7800e3
:1008a00000000600a1028800800478000000eb0030
:1008b0001f003700e284440054a0b4009905ba0038
:1008c000e284440054a0b4009906ba00e2844400d3
:1008d00054a0b4000006eb00476fde00fd07b20035
:1008e000ae018800636ce10003003a00eaff0700f4
:1008f0000000eb000e003700606ce10008003a00d9
:10090000004deb000a05e800020039003420ec003d
:100910000af0a0008b05e900f9ff3e000400370053
:100920006168e100010032000086eb000b00070067
:1009300019c7ba001905ba000e04e00003003a0016
:100940000a00e000dbff3a0000000600fe07b200ec
:10095000ae0288008a047800f5ff37000cd0a300af
:10096000e20f4d001c00390089027800354dba00b5
:100970000a05e800020039003420ec000af0a0006b
:100980008b05e9000f003200254dba000a05e8008a
:10099000020039003420ec000af0a0008b05e900c9
:1009a000080032000c00e0000600320015cdba004d
:1009b0000a05e800020039003420ec000af0a0002b
:1009c0008b05e9008984e80054a0b4000b00e00026
:1009d000e2ff3a00000006009902ba00055d7800c7
:1009e0008b05e900f7ff3200c82ade00055d7800bc
:1009f0008b05e900f3ff32000c00e000f1ff32004c
:100a000019ddba00eeff37003600f8008020a9009b
:100a10000000eb00250807003600f800a6070700d5
:100a20008040a90010002000200807003600f800d0
:100a30008060a900200020001c0807003600f80094
:100a40008080a90030002000180807000040da006c
:100a50000000fe00000005005400f800023b880082
:100a6000a10288000008bb000500fc005105200021
:100a7000313b8800a10a2000313b880061e7a800d3
:100a800000000000000000005400f9000000060013
:100a90000400a100010037000400a0005400f80089
:100aa000a102880011002400013b8800f10f200002
:100ab0003208bb000400a700b20078000198bb0018
:100ac0008301e900faff3a00680151000400a70021
:100ad00068015100680050001208bb00e2ff3700b7
:100ae000f30f20005400f800a10288003100240018
:100af000013b88000208bb000388bb00daff370017
:100b00005400f800003b8800d7ff370080017800d0
:100b100002003700815978000201e9000200e0007c
:080b2000fcff3a000000060092
:020000040000fa
:100b28001201000000020000000000000040000068
:100b3800d80400003c000000000100000102000091
:100b48000001000009020000290000000101000066
:100b580000c000003209000004000000000200008c
:100b6800030000000000000009210000110100003e
:100b780000010000221d00000007000005810000a0
:100b88000340000000010000070500000103000009
:100b980040000000010000000403000009040000f8
:100ba800340300004d0000006900000063000000ed
:100bb800720000006f000000630000006800000081
:100bc80069000000700000002000000054000000d0
:100bd8006500000063000000680000006e0000006f
:100be8006f0000006c0000006f000000670000004c
:100bf8007900000020000000490000006e0000009d
:100c0800630000002e0000002603000055000000cd
:100c180053000000420000002000000048000000cf
:100c280049000000440000002000000042000000cd
:100c38006f0000006f000000740000006c000000ee
:100c48006f00000061000000640000006500000003
:100c58007200000006000000ff09000001a100006a
:100c680001190000012900004015000000260000bd
:100c7800ff0000007508000095400000810000009a
:100c8800190100002940000091000000c000000088
:100c9800a6850000d0850000d485000008860000e5
:020000040000fa
:100ca8000080fb008181fb000001400002814100bf
:100cb8004311dd0003a020000301410012f0a10050
:100cc8000104e00004003a0000004000a180200078
:100cd800823078000300370000004000e1802000e7
:100ce8008230780012e0a1006401410012e0a00007
:100cf80000000600314a800000c4b300f20320005f
:100d0800828f50000e003e00014078008181200053
:100d1800914078000104e00004003a0013c0b300d9
:100d2800828120000349780005003700e1cf500098
:100d380003003a0023c0b3008281200003497800f1
:100d4800619420000081fb0091081100714080002f
:100d580080487800c1952000d14088004194200047
:100d680091007800e1806000030032000004e00098
:100d78000c003a00000006000004e00011003200f8
:100d88002294200092017800d14080009358780086
:100d9800d14088000309e8000040e900f8ff3a0064
:100da800000006002294200092017800d1408000c3
:100db80093587800d14088000309e8000040e90012
:100dc800f8ff3a000000060000c8b3004195200073
:100dd800914f100033003a0001ccb300409420003a
:100de800014878007095200010407800e24f5000cc
:100df80009003200e34f500019003200e14f500063
:100e080026003a0040592800104a88002001200096
:100e1800304a880000000600609520001004e000b9
:100e28000c003a001080fb0000004000c16428005c
:100e380061007800104a88006194200020419000e9
:100e4800824878008100e8003040900080487800af
:100e580000000600409420000048eb000000060057
:100e68006095200021c0b30090cf100008003e001c
:100e78001080fb0000004000e16428006100780059
:100e8800104a88001080fb00304a880000000600e5
:100e9800409420000048eb00000006004094200029
:100ea8000048eb00000006000040eb00c195200060
:100eb800804878008100e80080487800409520004c
:100ec800104078007f4060000080fb00e10f500078
:100ed8000b003200e20f50000c0032000000e0006e
:100ee80024003a00409420001070a0000348e2005b
:100ef800200032000100e9001014a0001d00370096
:100f0800409420001070a0001a0037004094200080
:100f18001070a000809520001004e0000700350044
:100f2800104078006f4060000080fb000000400027
:100f3800a1802000e100780007003700809520009c
:100f4800104078006f4060000080fb000000400007
:100f5800e1802000e1007800004028009100600056
:100f6800808f500003003a0011c0b300c0952000e4
:100f7800014878000008200041942000110060001a
:100f880007003200c0952000104a88000100780050
:100f98001000a00021c0b3000080e80001487800dc
:100fa80000000600aa24ab0011003200a040800017
:100fb8001041900001c8b300814f51000b003a0066
:100fc800714080001141900041c8b300814f510029
:100fd80006003a00c1c0b30011409800a04080004c
:100fe800904090000174a00011409800aa24a90024
:100ff800000820005024880000000600881f7800a0
:1010080070408000100478004e44de0061446400a3
:101018000020a2007040880030408000e80f500097
:101028000b003a00609520001080fb00f007b2002a
:10103800b02488009604e20003003200000120007a
:10104800304088000200370040002000304088000f
:1010580019c8bf00e14f500021003a00c195200097
:10106800704080001100980022ff070018c8bf00d8
:10107800e24f500008003a0041c0b30070408000c1
:101088001140980070408000904090000174a000ca
:1010980011409800200037000804e00008003a00da
:1010a80081c4b300704080001140980070408000f7
:1010b800904090000174a00011409800160037007d
:1010c80081c0b300704080001140980070408000db
:1010d800904090000174a000114098000e00370065
:1010e800a09420001004e0000a003d00614a80003e
:1010f800c808de00640040001080fb004800dd00e6
:10110800008070000100320000000100a09420005f
:101118001070a1001968ef004f0478000000060065
:101128000468ef000001eb008000eb00400720009e
:10113800ea0607008284a900000120000024880034
:101148000968ef00000006008284a8000001200062
:101158005024880010c0b30004e8b7000968ef0005
:101168000001eb008000eb0050072000db06370091
:10117800889fbe006095200011c0b30090cf10007a
:101188000e003a000080e900104078007f406000bf
:101198000a003a00409420001070a00050952000ea
:1011a80032c0b300904f110003003a0001407800ac
:1011b80003e8b700010037000368ef0060952000de
:1011c8001004e0009c003a000080e900104078001c
:1011d8007f406000e24f500097003a008095200061
:1011e800104078006f406000930032008095200026
:1011f800104078006f4060000080fb00e10f500055
:101208008d003c00000220000608e3008a003a0036
:10121800409420001070a000809520001004e00089
:101228000c00350010417800ef4061008180fb0020
:1012380081804000a28020006284780010407800fd
:101248006f4060000080fb0021952000e144780099
:101258000c0037008095200010417800ef406100b5
:101268008180fb0081804000e28020006284780059
:10127800104078006f4060000080fb00019520005e
:10128800e14478000908a30002003a000820a10000
:10129800010037000820a000809520001004e0001d
:1012a80007003500104078006f4060000080fb00a8
:1012b80000004000a1802000883078000700370037
:1012c80080952000104078006f4060000080fb008f
:1012d80000004000e1802000883078005095200010
:1012e80031c0b30090cf10001a003a001800e00097
:1012f80013003d00630040001004e00008003500c2
:10130800104078006f4060000080fb0021952000ad
:10131800614178000214a00082707800080037004c
:1013280080952000104078006f4060000080fb002e
:1013380001952000614178000214a00082707800b5
:101348009840900040c8b30000c070001044980056
:1013580039003700880078000120a2001100e00061
:1013680008003d00114090000074a1000064a00036
:1013780090409800220020005000200057060700e7
:1013880003003700114090000064a00090409800ce
:101398000918a30002003a001800e0001b003d00f5
:1013a800809520001004e000080035001040780007
:1013b8006f4060000080fb002195200061417800ab
:1013c8000214a10082707800080037008095200080
:1013d800104078006f4060000080fb0001952000fd
:1013e800614178000214a1008270780018409000d2
:1013f800b043b20010449800220020008800780012
:101408005000200035060700030037001840900000
:10141800b043b20010449800809520001040780036
:101428006f4060000080fb0000004000a14a2000df
:10143800010040001014a1004f04be000000060087
:10144800881f7800409420001070a000ac24ef00a2
:1014580008a02000020220008000eb0008007800ad
:10146800a8fd07009424a8000040eb000195200087
:101478008048780021952000804878001195200048
:101488008048780031952000804878001268ef0085
:101498009424a9006800440070408800a84088008f
:1014a800b8408800609520001040780008e8b70030
:1014b8000004e00003003a000001200030408800ea
:1014c8000600370012002000818020001000200054
:1014d8000206070000022000304088004f04780010
:1014e800000006004095200001c6b30010c060004f
:1014f8003f003a00509520001080fb008000eb0070
:10150800eb0f5000e08f580039003e0000600100ea
:101518001c0037001c003700350037001a00370060
:1015280033003700060037000a0037002c00370068
:101538000a00370008003700140037002000370081
:10154800409420001070a0008000200030408800e7
:10155800000006001cfe3700b9ff3700808020001d
:10156800104a8800409420009000780013c0b3000f
:101578000081e800034978001108b30001087800e9
:101588000000060048fe3700f9fe3700809520006d
:101598001081fb00218120002094200001084100d7
:1015a8000080e8009000780013c0b3000081e800d4
:1015b800034978001108b30001087800000006000c
:1015c800409420001070a000809520009080fb00bf
:1015d80020812000629520009270780000000600ab
:1015e8000001eb008000eb0020002000bb05070095
:1015f800000006009ec0a900e8e2a8000080eb00f9
:101608007024880050248800aa24ef00ac24ef003e
:101618002000200030258800a824ef008644a90077
:10162800f0092000802488006024880082c4a80073
:101638008804a80000a02000c800de00c12488009b
:101648000008eb00301078006000b80020508800d7
:101658003150880040508800515088006050880000
:10166800715088008050880091508800a0508800f0
:10167800b1508800c0508800d1508800e0508800e0
:10168800f15088009424a8009624ef0094a4a9009f
:101698009424a90080002000502488008a64ab00ac
:1016a800fcff3a000040eb0041942000804878009d
:1016b800a19420000081fb00820878008180e80066
:1016c80002f02f009108610013c0b30002822000cd
:1016d8000349780012822000034978000268ef006d
:1016e8000068ef000468ef000a28ef000195200069
:1016f8008048780021952000804878001028ef0065
:101708000c28ef00119520008048780031952000c2
:101718008048780080a0200070408800d000200019
:1017280050258800409520001050880001c4b3005f
:1017380000a02000014878000000e80041c0b30084
:10174800014878001074a0000868ef002228ef0014
:101758002428ef000968ef000628ef0000000600c3
:10176800889fbe008a1f7800004578008144780071
:101778000984fb000838a300030032008040eb0016
:101788000a40780046fd07000828a300030032003d
:1017980011c0b3000a40780041fd07000a85fb002c
:1017a8000a054500a04a200009707d004f05780011
:1017b8004f04be00000006000104e00005003200ee
:1017c8000082fb0004024200e580200065027a00e6
:1017d800040037000082fb0004024200a5802000bc
:1017e80065027a008002eb000400e0001a00320073
:1017f80012029800034a7800144190000244b20093
:1018080012429800144190000234a000124298003d
:10181800144190000274a000124298000104e000f4
:10182800070032000080fb0000004000e18020003b
:10183800008040001020a2008402780006003700d3
:101848000080fb0000004000a180200000804000d4
:101858001020a2008402780005007800000006002d
:101868000004e00014003a0001c4b300b040800056
:1018780001487800b0408000419520001100980090
:10188800c1c0b30011409800b04080009040900063
:101898000174a0001140980041c0b300704080005e
:1018a8001140980070408000904090000174a000a2
:1018b80011409800000006008180fb000080fb00ba
:1018c80000004000008040004300dd0002a020002e
:1018d800820140001342900041c8b30001427200e7
:1018e80094419800640040000200400010419000bc
:1018f80081407100114098000000060094a4ab00dc
:10190800190032000080fb0000004000e180200048
:1019180000804000900078001103be0004042000fd
:1019280005002000060362008003eb008688be00e5
:10193800900078001103be0084186b0085906b003e
:10194800900078000120a2000108780091419000e1
:101958000344b20093409800100078009040900033
:1019680004c1680012409800000006002048e20008
:101978002a003a0010c0b30020e8b7002148e2006e
:1019880026003a0021e8b70019c8bf00e24f50000e
:101998000a003a00704080000048eb0081c4b300a0
:1019a8007040800011409800704080009040900086
:1019b8000174a0001140980000000600e14f50009b
:1019c80016003a001e68ef0000c4b300a140800072
:1019d80080487800a24080004195200011019800bd
:1019e80043c0b30013419800a24080009241900088
:1019f8000374a0001341980014c0b300e3812000d1
:101a080084497800b240800000497800b0408000e6
:101a18001100980001c8b3001140980000000600aa
:101a2800a040800010427800504a80004800de0044
:101a3800c19420009180fb00c808dd0001007000ff
:101a48008480fb00808f500001003600004278003f
:101a58008480fb0001005000a19420004801dd00b3
:101a6800f30f200091816100828871004800de0038
:101a78008180e800804878000404e0000900320012
:101a88000000eb008194200011017800c39520002c
:101a9800634978008208e8000000e800804f52009f
:101aa800f8ff3e00504a80004800de00c194200044
:101ab8009180fb00c808dd000100700019003200a9
:101ac80001c4b300b040800001487800c1952000ef
:101ad800b040800011009800a040800010e8a300ea
:101ae80008003a0081c4b300b0408000114098005b
:101af800b0408000904090000174a0001140980010
:101b08000000060081c0b300b0408000114098007a
:101b1800b0408000904090000174a00011409800ef
:101b28000000060001c4b300b040800001487800fe
:101b3800b0408000419520001100980041c0b300da
:101b480011409800b0408000904090000174a000bf
:101b580011409800604a80004800de00e1942000af
:101b68009180fb00c808dd00010070000100320010
:101b780000000100a09420001070a1000148e200bc
:101b880001003a0079ff07000000060019c8bf00ed
:101b9800e24f500001003a00a1ff37001968ef003a
:101ba8001e48e2000d003a0001c4b300b0408000b6
:101bb80001487800b040800041952000110098004d
:101bc800c1c0b30011409800b04080009040900020
:101bd8000174a00011409800000006001e68ef0084
:101be800000006000268ef000068ef0019c8bf0097
:101bf800e24f50000d003a0001c4b300b04080002d
:101c080001487800b0408000c1952000110098007c
:101c180081c4b30011409800b0408000904090000b
:101c28000174a0001140980000000600a095200053
:101c38001080fb00b19520009180fb00c808dd00f2
:101c48008100700060942000908f500007003100e0
:101c5800a09520009080fb000000e8001081fb00a8
:101c68004811dd00609420000108710021fc070084
:101c7800c1952000704080001100980081c4b30015
:101c880070408000114098007040800090409000a3
:101c98000174a000114098000000060094a4a90057
:101ca8000008200041942000110060001f003a0045
:101cb800a09420001004e00008003d0020c0b300fc
:101cc80019e8b7000048e20001003a00c5ff070024
:101cd8002168ef002068ef000000060001c4b3008f
:101ce800b040800001487800b04080004195200055
:101cf80011009800c1c0b30011409800b0408000a6
:101d0800904090000174a0001140980041c0b300b9
:101d18007040800011409800704080009040900012
:101d28000174a000114098000000060040952000b2
:101d38001004e0000a003d0010c0b30019e8b70025
:101d48000248e20001003a00a6ff07002168ef0000
:101d58002068ef000148e20014003a0003ff370052
:101d680020c0b30019e8b70001c4b300b040800038
:101d780001487800b040800041952000110098008b
:101d880041c0b30011409800b040800090409000de
:101d98000174a000114098002168ef002068ef004e
:101da8000148e20001003a00f0fe070000000600ca
:101db8001868ef000168ef000268ef000068ef00a4
:101dc8001e68ef001968ef00704080009040900096
:101dd8000174a10011409800704080000020a2000a
:101de80070408800904090000174a1001140980054
:101df8000e48aa00b0408000904090000174a100f5
:101e080011409800409420000048eb008000eb004f
:101e1800314a8800a09420008180fb0001087800e6
:101e28000080e80001f02f0010886000adfd070079
:101e38000001eb008000eb0030002000a703070042
:101e480096ff3700d0c2b3001fe8b700c181200059
:101e58009140780001007800b00fb20013003a00fa
:101e6800c10fb20000a0200080804000a14088007f
:101e7800010078000020a200b040880002c02300c2
:101e88001101610000402300800f510006003a0054
:101e9800110090004195200007000900b058780013
:101ea8008000b100c2ff370038ff3700e80f50004c
:101eb80001003a0051fc07000000060010418000b4
:101ec8002141800061004000e08048001041880006
:101ed800214188000448e20004003a000948ec0067
:101ee80009e8b70001003a0009e8ef000000060021
:101ef800881f7800304080000000e00012003a009f
:101f08009424ef008c24ef00200020003025880066
:101f1800a824ef008644a900f00920008024880046
:101f28006024880082c4a8009404ab0003003a002f
:101f38009404a8009404ab00fdff320010002000b8
:101f48003040880002003700e10f500008003a00d6
:101f580094c4ab0006003a008aa4ef008c24ef007a
:101f68008c04a8008c84a800200020003040880041
:101f78008084ab00050032008284ab00030032008d
:101f8800000120000024880065fc07008824ab00bd
:101f9800020032008ec0a900690037008a04ab0035
:101fa800070032008c04ab000500320091fd0700e9
:101fb8004000200030408800100020005024880095
:101fc8008a84ab00030032008c84ab00010032002d
:101fd8005dfc070080c4ab00030032000004200051
:101fe80000248800b5ff07008a44ab000e003200c9
:101ff8008c44ab0004003200120020008000eb008b
:1020080030072000350307004000200050248800d6
:102018001fc8bf00030032000040e9001fe8b700f6
:1020280001003a0051fe07008ae4ab0003003200c9
:102038008ce4ab0001003200dafb07008a24ab0015
:10204800090032008c24ab00070032001200200087
:102058008000eb00f0ff2700200307008ea4ef00ac
:10206800200020005024880030408000e30f5000fa
:1020780002003e008ec0a900310037008c64ab001e
:102088002e00320048c0b3008a64ab0003003a0057
:102098002a0037008a64ab002800320091248000af
:1020a800c0812000014878000181fb004411de0056
:1020b8000240780002427800d381200084497800e9
:1020c80082002000522488000138a30009003a0049
:1020d8008080fb0022952000e2c1780061c2610087
:1020e8000404a2000304a10084c1710003f1780074
:1020f800080037008080fb0002952000e2c17800cc
:1021080061c261000404a2000304a10084c171003b
:1021180003f178000004e00002003a0049ff0700dc
:10212800040037000001eb00c181200020072000d7
:10213800ea0207000844e900d6ff3a008ec0a90069
:102148004f04780000000600104180002141800003
:1021580000000600881f78002628ef002828ef00d6
:1021680090cab3002ae8b70000802a0060418800be
:10217800200020007041880018c0b3000840780093
:1021880081832000884878003068ef0034a8ef0089
:1021980036a8ef003268ef00d1c1b30070fd070028
:1021a80003c4b300228c20008040eb000840780074
:1021b80081fd0700304188004f04780000000600c8
:1021c80012832000124178000281fb008001eb009d
:1021d8004a18dd00c610de00810070004a10dd00dc
:1021e80022042400023b88000181fb00a20288002f
:1021f8000081eb000208bb001000fc005005200025
:10220800303b8800a00a2000303b880061e7a80026
:1022180000000000000000006007e200feff35003b
:102228000000060030002400003b880032c8bf00d0
:102238001b003200219020000081fb008001eb0090
:10224800a4418000b54180000201520083815a00f8
:10225800a3028800020078001108bb001101900059
:102268000288bb001000fc0050052000303b8800ad
:10227800a00a2000303b880061e7a80000000000a9
:10228800000000006007e200feff350032c8ed00e4
:1022980032e8b700e48040000004e000e6ff3a00be
:1022a80061c7a90000000600a3028000a1028800ff
:1022b800000178001282ba00840078001200ba0087
:1022c800a302880000000600889fbe008a9fbe0007
:1022d8003048e20022003a00404180000000e0005f
:1022e800020032001000e0006e013500304180002d
:1022f8000000e00005003a00108c20001184200046
:102308000204200000014100030037001000e00033
:10231800f9ff3d0063013700d0687800820f500054
:10232800fdff3a0003c4b300228c20008040eb007c
:1023380010c0b30020fd07003041880010c0b30072
:1023480030e8b70010882000010420008080400099
:102358000068eb00810f5000fdff3a005101370083
:102368002084200010407800e54f5000870032009c
:1023780006003e00e34f50005a0032006e003e0057
:10238800e24f500047013a0006003700e74f50007f
:10239800d7003200d1003900e84f500041013a001f
:1023a8002b01370020c0b300218820008048780026
:1023b80082c3b3008100e800824878008100e80009
:1023c8008048780011c0b300508820000148780088
:1023d8000040eb00618820008048780082c1b3008b
:1023e8008100e800824878008100e8008048780091
:1023f8008100e8008048780000802e00f1ff2f005f
:1024080062418000734180000200400083804800e0
:10241800f20f2000a3882000824960004802de00f5
:102428008301e800844978008301e80082c96000dc
:10243800c808de000300e800014878000000e80052
:1024480000c8eb003848e20019003a0031c0b30078
:10245800014878000040eb0082cfb300e3804100e0
:1024680082487800b2cab3008100e8008248780048
:1024780022c0b3008100e800824878008100e800ab
:102488008048780082c0b3008100e8008248780064
:102498008100e800804878008100e80080487800e2
:1024a8008100e800804878000100e80000c8eb00df
:1024b800404180000000e000020032001000e0000f
:1024c800f800350003c4b3002288200011c0b3000f
:1024d80001407800b8fc0700404188003068ef00f0
:1024e800f0003700308420001004e00008003a00b3
:1024f800a0cab3002ae8b70083bf2a006341880056
:1025080023002000734188003868ef000800370076
:1025180090cab3002ae8b70000802a00604188000a
:10252800200020007041880010c0b30038e8b700d0
:102538003068ef00db00370060c0b30031e8b70057
:102548002ac8bf000080fb000000e800e60f50002a
:102558000b0034001aff070065fe07003148ec0045
:1025680031e8b7000080fb00a1822000914078008c
:102578008180fb008100e800810f5000f5ff3500e5
:1025880061c7a9003068ef00c6003700a04180008d
:10259800b1418000e10f4000e08f48000e003a0092
:1025a800328420001281fb00438420009381fb00c9
:1025b800c819dd0003007100528420001281fb005d
:1025c800638420009381fb00c819dd00830071003b
:1025d800a0418800b1418800328420001281fb00ac
:1025e800438420009381fb00c819dd0003007100bb
:1025f800528420001281fb00638420009381fb0039
:10260800c819dd0083007100a2418000b341800039
:10261800820f5000838f58002e003a0070842000eb
:1026280010407800e14f50002a0036000044eb00cb
:1026380021832000914078000181fb008201410044
:102648000080fb0082032000000051004f01de00e3
:10265800000041000080d1000881fb00020040001a
:10266800640040000000400022842000624278009c
:102678000482fb0000004100104190004811dd0079
:10268800020172002090200002b079000140e800a9
:1026980032e8b700a2418000b341800061014100e7
:1026a800e0814900a2418800b3418800fc4f5000f6
:1026b80001003a00dbfe07000844e80070842000af
:1026c800104078008080fb008100d100814f5400c9
:1026d800d7ff39003068ef0072003700d1fe0700dd
:1026e80034a8ef0036a8ef003068ef006d0037001f
:1026f800404180000000e000020032001000e000cd
:102708006800350071c0b3002088200001487800b7
:10271800328420001281fb00438420009381fb0057
:10272800c819dd0003007100528420001281fb00eb
:10273800638420009381fb00c819dd0083007100c9
:10274800f20f200033882000824960004802de0032
:102758008301e800844978008301e80082c96000a9
:10276800c808de000300e8000148780070842000f3
:10277800104078008380e80080487800e14f5000de
:102788002b0036000044eb000881fb008001eb00c1
:10279800348420001482fb00458420009582fb00cd
:1027a800c82add0005007200548420001482fb0052
:1027b800658420009582fb00c82add008500720030
:1027c8000200400083804800b7fe07008884fb00b1
:1027d800748420009482fb008502d1008583fb006d
:1027e800078554000a02b000268820000a05450023
:1027f8000a054300f40f2000044d6000c805de0000
:102808001b45980081016200078054001002b00047
:10281800000040000000430004c86100c818de0042
:102828001140980008c4e80088cf5200d6ff3e0047
:1028380003c4b3002288200011c0b300014078000f
:10284800ddfb0700404188003068ef0015003700c5
:102858009424ef000080eb00000000000000e90075
:10286800fdff3a00e87f2a00290020000800be008a
:102878008dfe070062044400e0844c00e0bf2a009b
:1028880021002000800f5400818f5c00f7ff3a0080
:1028980022042400e07f2a00210020006cf80700b1
:1028a8000000fe004f05be004f04be0000000600f9
:1028b800c099200080077800780040000001880057
:1028c8000000060000102300203a88004827ef0087
:1028d800a109200032002000800720003374200066
:1028e8008049780081497800824978007105200084
:1028f80052002000600420002374200080497800e2
:1029080081497800824978004207ab00feff3a000f
:10291800000006007000200020168800f0ff270045
:102928006016880000012000a0168800000027001b
:10293800e0168800e422ef00c0122000601788002b
:10294800011c2100a117880001002c000116880035
:1029580031002000411688000100290081168800f6
:10296800d822ef00e022ef0040178800c0002000c6
:10297800801788005620ef005820ef005a20ef00fb
:102988005c20ef005e20ef006020ef006e20ef007b
:102998007020ef007220ef007420ef007620ef0027
:1029a8007820ef00c622ef00ce22ef00d622ef00fb
:1029b800de22ef00e622ef00ee22ef00f622ef0023
:1029c800e024ef00e224ef00e424ef00e624ef0027
:1029d800e824ef00ea24ef00ec24ef0000000600f2
:1029e8000600fa00881f780000047800c9ff070075
:1029f800b4ff07000800e00027003a0083e0a800c1
:102a08000040eb0080ff9f0020002000a00288000b
:102a180060bf2a009000ba00d1bf9f001080ba00a2
:102a2800e0bf9f005fb897000008a30002003a00cb
:102a380010c0b30080ff9f005420ef0000912100d8
:102a48009000ba00d1bf9f001080ba00e0bf9f007d
:102a58005fb897000008a300050032006fb8970020
:102a68000008a3000200320010c0b30080ff9f00de
:102a78000ff897000004e00006003a003008200034
:102a88004007b6000300320083e0a90000180400e4
:102a980000000000e8e2a8004f0478000080fa0077
:102aa80000000600f0418800ffff37004095200035
:102ab800104078007f406000e14f500054003a0019
:102ac800809520001004e00051003a006300500097
:102ad80061c0b30090cf10001b003a000080e800ee
:102ae80010407800fbc04000814f500004003200c5
:102af8008140e800814f500013003a000b00370076
:102b080008c8bf00e14f50000f003a00805b280062
:102b1800104a880090002000304a880001ccb30099
:102b2800409420000148780007003700e062280040
:102b3800104a8800d0012000304a880001ccb30038
:102b480040942000014878004095200002c6b30058
:102b58009040610000c2b30080cf50002c003a00c2
:102b68005095200010407800e34f500019003200c3
:102b780003003e00e24f500025003a0005003700f0
:102b8800ea4f50000b003200eb4f500020003a0093
:102b980018003700a0832000104a88001000200089
:102ba800304a880011ccb3004094200001487800d6
:102bb8000000060001c8b3004094200001487800d6
:102bc8007095200010417800a18320008248780089
:102bd80000000600b0832000104a88001000200082
:102be800304a880011c8b30040942000014878009a
:102bf8000000060001c8b300409420000148780096
:102c08006095200010417800b18320008248780048
:102c1800000006008824ab0002003200c4e2a900cc
:102c280000000600000220000608e3000f003a003a
:102c380000428000e10f500002003a00c4e2a80000
:102c480018003700b1042000810f500002003a003c
:102c5800c4e2a9001300370061092000810f500069
:102c6800100036004028ef000e00370000428000b8
:102c7800e10f500002003a00c4e2a8000900370042
:102c880021032000810f500002003a00c4e2a9008d
:102c980004003700613b2000810f5000010036001e
:102ca8004028ef004028ec00000006000000eb0080
:102cb8004bff07004ffa07000060fe008cfc07007e
:102cc80030408000ff0f5000fbff36008824ab0027
:102cd800f9ff3a007cfd0700f7ff370031072000b5
:102ce800810f50000d00320005003c00e10f50003c
:102cf80010003200e30f500011003a000f003700b7
:102d080041072000810f5000080032008100e800d0
:102d1800810f50000a003a0002003700bdff07008b
:102d280007003700bbff070005003700b9ff0700a1
:102d38000300370007fd0700010037005bff0700ad
:042d48001000050072
:020000040000fa
:102d4c00420900005a00000080000000000800004a
:102d5c002600000080000000000a00002000000097
:102d6c00800000003a080000020000008000000013
:102d7c00420800000001000080000000260800004e
:102d8c0014000000800000003c080000020000005d
:102d9c0082000000010000009c09000020000000df
:102dac00800000003e0800000200000082000000cd
:102dbc00ffff00004008000002000000800000003f
:042dcc000000000003
:020000040000fa
:103000000004040000000000260504000000000089
:103010000405040000000000160504000000000084
:103020000c050400000000001e0504000000000064
:103030002605040000000000260504000000000032
:103040002605040000000000260504000000000022
:103050002605040000000000260504000000000012
:103060002605040000000000260504000000000002
:1030700026050400000000002605040000000000f2
:1030800026050400000000002605040000000000e2
:1030900026050400000000002605040000000000d2
:1030a00026050400000000002605040000000000c2
:1030b00026050400000000002605040000000000b2
:1030c00026050400000000002605040000000000a2
:1030d0002605040000000000260504000000000092
:1030e0002605040000000000260504000000000082
:1030f0002605040000000000260504000000000072
:103100002605040000000000260504000000000061
:103110002605040000000000260504000000000051
:103120002605040000000000260504000000000041
:103130002605040000000000260504000000000031
:103140002605040000000000260504000000000021
:103150002605040000000000260504000000000011
:103160002605040000000000260504000000000001
:1031700026050400000000002605040000000000f1
:1031800026050400000000002605040000000000e1
:1031900026050400000000002605040000000000d1
:1031a00026050400000000002605040000000000c1
:1031b00026050400000000002605040000000000b1
:1031c00026050400000000002605040000000000a1
:1031d0002605040000000000260504000000000091
:1031e0002605040000000000260504000000000081
:1031f0002605040000000000260504000000000071
:103200002605040000000000260504000000000060
:103210002605040000000000260504000000000050
:020000040000fa
:020000040005f5
:0457f400fffc0000b6
:020000040000fa
:020000040005f5
:0457f8002e48000037
:020000040000fa
:020000040005f5
:0457fc007f3f0000eb
:00000001FF
